S011000045464D33325F426173652E733337CC
S113000000000220BD040000E9040000E90400002F
S1130010E9040000E9040000E9040000E904000028
S1130020E9040000E9040000E9040000C10900003B
S1130030E9040000E8040000810A0000C90A000085
S1130040E9040000E9040000E9040000E9040000F8
S1130050E9040000E9040000E9040000E9040000E8
S1130060E9040000E9040000E9040000E9040000D8
S1130070E9040000E9040000E9040000E9040000C8
S1130080E9040000E9040000E9040000E9040000B8
S1130090E9040000E9040000E9040000E9040000A8
S11300A0E9040000E9040000E9040000E904000098
S11300B0E9040000E9040000E9040000B53400008C
S11300C0E9040000E9040000E9040000E904000078
S11300D0E9040000E9040000E904000010B5054C3F
S11300E0237833B9044B13B10448AFF300800123E0
S11300F0237010BD8C00002000000000D04B0000D5
S113010008B5034B1BB103490348AFF3008008BD96
S11301100000000090000020D04B0000154B002B85
S113012008BF134B9D46A3F5803A00218B460F462A
S11301301348144A121A03F006FC0F4B002B00D08C
S113014098470E4B002B00D0984700200021040054
S11301500D000D48002802D00C48AFF3008003F0D6
S1130160C3FB2000290003F063FA03F0A9FB00BFDE
S11301700000080000000220000000000000000051
S11301808C000020F024002000000000000000008B
S113019080B582B000AF03463960FB71FB79002B58
S11301A01FD0FB79012B19D0FB79022B13D0FB79DB
S11301B0032B0DD0FB79042B07D0FB79052B02D13F
S11301C041F6FF730FE000230DE04FF6FF730AE0E2
S11301D04FF6FF7307E04FF6FF7304E04FF6FF732B
S11301E001E04FF6FF733A68134103F00103002B5B
S11301F004D140F20B410A4801F020FE01223B6881
S113020002FA03F30749FA7918461346DB0013444C
S11302109B000B441033186000BF0837BD4680BDF7
S1130220B84700000060004080B582B000AF0346CC
S11302303960FB71FB79002B1FD0FB79012B19D09E
S1130240FB79022B13D0FB79032B0DD0FB79042B04
S113025007D0FB79052B02D141F6FF730FE0002391
S11302600DE04FF6FF730AE04FF6FF7307E04FF619
S1130270FF7304E04FF6FF7301E04FF6FF733A6833
S1130280134103F00103002B04D140F226410A4834
S113029001F0D4FD01223B6802FA03F30749FA791D
S11302A018461346DB0013449B000B4418331860B4
S11302B000BF0837BD4680BDB8470000006000405D
S11302C080B582B000AF0121104802F085F8012109
S11302D00F4802F081F800237B600FE00D4A7B6831
S11302E012F833000B4A7B68DB001344596800237F
S11302F0042202F01DFB7B6801337B607B68012BC9
S1130300ECDD002318460837BD4680BD408104005B
S113031000D204001C48000080B582B000AF7860B1
S11303207B68002B10DB7B68012B0DDC094A7B68A2
S113033012F83300074A7B68DB0013445B681946F4
S1130340FFF726FF002301E04FF0FF33184608377C
S1130350BD4680BD1C48000080B582B000AF786007
S11303607B68002B10DB7B68012B0DDC094A7B6862
S113037012F83300074A7B68DB0013445B681946B4
S1130380FFF752FF002301E04FF0FF331846083710
S1130390BD4680BD1C48000080B582B000AF3A4B1A
S11303A05B6C394A43F400535364384BD3F820311F
S11303B0364A43F00403C2F82031344BD3F82031D9
S11303C0324A23F44073C2F82031304BD3F8B830AA
S11303D02E4A23F47063C2F8B8302C4BD3F8B830EB
S11303E02A4A43F48063C2F8B830274B10221A62B9
S11303F000BF254BDB6A03F02003002BF9D0244B0C
S11304001B68234A43F001031360214BDB68204A35
S113041043F08073D3601F4B1F4A1A601F4802F0D9
S113042049F8034603F5D52303F2FC437B607B685C
S1130430DB081B4AA2FB03239B0A3B60194A3B6867
S1130440013B1361174B0222C3F8F020154B4FF404
S11304508072C3F804234FF06043134AC3F8B02FEB
S11304604FF06043114AC3F8802E4FF06043D3F835
S1130470003E4FF0604243F00103C2F8003E012306
S113048018460837BD4680BD00800C40006000401F
S1130490F0ED00E0001000E0FF13014006000E0044
S11304A017916502000004E055CEACC509000100B7
S11304B080B500AFFFF770FF00BF80BD06488047DE
S11304C00649074A074B9A42BEBF51F8040B42F84B
S11304D0040BF8E7FFF722FE39060000DC4B0000AE
S11304E0000000208C000020FEE700BF80B400AFB5
S11304F0034BDB6C1B0EDBB21846BD4680BC704759
S1130500B081E00F80B582B000AF00F015F87860DC
S1130510074B5B6803F00F037A6822FA03F37B60EE
S1130520044A7B6813607B6818460837BD4680BD63
S113053000800C400800002080B582B000AF334B2F
S1130540DB6A03F47053B3F5805F0AD0B3F5005F40
S113055003D0B3F5006F08D00BE02D4B1B687B6014
S113056047E04FF400437B6043E02A4B1B687B6009
S11305703FE0264BDB6803F4E063B3F5007F1BD058
S1130580B3F5007F05D8002B24D0B3F5807F16D0B7
S11305902BE0B3F5806F09D0B3F5A06F03D0B3F5AA
S11305A0407F06D021E01C4B7B6021E01B4B7B602D
S11305B01EE01B4B7B601BE01A4B7B6018E0FFF7CF
S11305C095FF0346122B02D9174B7B6010E0174BA3
S11305D07B600DE0FFF78AFF0346122B02D9144B10
S11305E07B6005E0134B7B6002E000237B6000BF6F
S11305F000BF064B1B689B0B03F0070301337A68AB
S1130600B2FBF3F318460837BD4680BD00800C40AA
S11306100400002000000020003FAB01406F4001B7
S1130620809FD500C0D8A70040B56400C0CF6A0041
S1130630804F120040420F0080B400AF034B044AC5
S11306409A6000BFBD4680BC704700BF00ED00E06B
S11306500000000080B400AF4FF400431846BD46CC
S113066080BC704780B400AF4FF47A731846BD461F
S113067080BC704780B400AF024B1B681846BD466F
S113068080BC70470400002080B582B000AF0346F0
S1130690FB71074B1B68002B04D0054B1B68FA79D0
S11306A010469847012318460837BD4680BD00BF51
S11306B0B400002080B582B000AF78603960124A7F
S11306C07B681360114B124A1A60104A3B685360EE
S11306D0104B00221A700F4B00225A7002F062FE77
S11306E0034603F48073002B09D002F031FE074B5C
S11306F05B68002B03D0054B5B680420984700BF60
S11307000837BD4680BD00BFB4000020A80000200B
S113071089060000B800002080B584B000AF78607E
S11307200023FB607B6803F00703002B04D07B6885
S113073023F0070308337B6000F0DEFE164B1B68D2
S1130740002B05D1154B23F007031A46124B1A60F0
S1130750134B1A687B68134442F21F32934213D836
S11307600F4B1A687B681A440D4B1B689A420BD9CD
S1130770094B1A680A4B1B681344FB60084B1A6840
S11307807B681344064A136000F0C4FEFB681846F5
S11307901037BD4680BD00BFE8230020C400002000
S11307A0E423002080B582B000AF78607B68002B22
S11307B003D0B821034801F041FB00BF0837BD4610
S11307C080BD00BF2C48000080B483B000AF7860C7
S11307D07B6803F108027B685A607B684FF0FF3244
S11307E09A607B6803F108027B68DA607B6803F136
S11307F008027B681A617B6800221A6000BF0C370C
S1130800BD4680BC704780B483B000AF78607B681D
S113081000221A6100BF0C37BD4680BC704780B40B
S113082085B000AF786039607B685B68FB603B68CB
S1130830FA685A60FB689A683B689A60FB689B6830
S11308403A685A60FB683A689A603B687A681A6149
S11308507B681B685A1C7B681A6000BF1437BD464E
S113086080BC704780B485B000AF786039603B6865
S11308701B68BB60BB68B3F1FF3F03D17B681B6996
S1130880FB600CE07B680833FB6002E0FB685B689C
S1130890FB60FB685B681B68BA689A42F6D2FB6827
S11308A05A683B685A603B685B683A689A603B6880
S11308B0FA689A60FB683A685A603B687A681A6119
S11308C07B681B685A1C7B681A6000BF1437BD46DE
S11308D080BC704780B485B000AF78607B681B69CA
S11308E0FB607B685B687A6892689A607B689B6847
S11308F07A6852685A60FB685B687A689A4203D1E6
S11309007B689A68FB685A607B6800221A61FB68FE
S11309101B685A1EFB681A60FB681B68184614376C
S1130920BD4680BC7047000080B485B000AFF8605D
S1130930B9607A60FB68043BFB60FB684FF080722F
S11309401A60FB68043BFB60BB6823F00102FB6890
S11309501A60FB68043BFB60084AFB681A60FB688A
S1130960143BFB607A68FB681A60FB68203BFB6001
S1130970FB6818461437BD4680BC704781090000E7
S113098080B582B000AF094B1B68B3F1FF3F03D0C1
S1130990FF21074801F052FA4FF0BF0383F3118897
S11309A0BFF36F8FBFF34F8F7B60FEE70C00002017
S11309B04C4800000000000000000000000000009F
S11309C0074B19680868B0E8F00F80F30988BFF393
S11309D06F8F4FF0000080F311884EF00D0E7047BA
S11309E0EC23002000BF00BF80B582B000AF4FF001
S11309F0BF0383F31188BFF36F8FBFF34F8F7B6007
S1130A000B4B1B6801330A4A1360094B1B68012B0B
S1130A1009D1084B1B68DBB2002B04D04FF4C6711C
S1130A20054801F00BFA00BF0837BD4680BD00BF82
S1130A300C00002004ED00E04C48000080B582B0BA
S1130A4000AF0D4B1B68002B04D140F293110B48EF
S1130A5001F0F4F9084B1B68013B074A1360064B8D
S1130A601B68002B04D100237B607B6883F311880F
S1130A7000BF0837BD4680BD0C0000204C48000074
S1130A80EFF30980BFF36F8F0D4B1A6820E9F00F65
S1130A9010602DE908404FF0BF0080F3118800F08A
S1130AA08BFE4FF0000080F31188BDE80840196800
S1130AB00868B0E8F00F80F30988BFF36F8F7047C0
S1130AC0EC23002000BF00BF80B582B000AF4FF020
S1130AD0BF0383F31188BFF36F8FBFF34F8F7B6026
S1130AE000F0B0FD0346002B03D0064B4FF08052BC
S1130AF01A6000233B603B6883F3118800BF08370A
S1130B00BD4680BD04ED00E080B584B000AF7860E0
S1130B1039607B68FB60FB68002B04D14FF494714F
S1130B20294801F08BF9FFF75FFFFB681A68FB683F
S1130B30DB6BF968096C01FB03F31A44FB685A6028
S1130B40FB6800229A63FB681A68FB689A60FB687A
S1130B501A68FB68DB6B013BF968096C01FB03F362
S1130B601A44FB68DA60FB68FF2283F84420FB68C0
S1130B70FF2283F845203B68002B14D1FB681B69D6
S1130B80002B1AD0FB681033184600F08BFE034686
S1130B90002B12D00D4B4FF080521A60BFF34F8FD1
S1130BA0BFF36F8F09E0FB6810331846FFF70CFEA4
S1130BB0FB6824331846FFF707FEFFF73FFF0123C6
S1130BC018461037BD4680BD6C48000004ED00E0B7
S1130BD080B58AB002AFF860B9601346FB71FB6858
S1130BE0002B04D140F29511134801F027F9BB689A
S1130BF0002B02D10023FB6104E0FB68BA6802FB0E
S1130C0003F3FB61FB6948331846FFF785FDB861C0
S1130C10BB69002B0BD0BB6948337B61FA79BB6994
S1130C20009313467A69B968F86800F007F8BB695D
S1130C3018462037BD4680BD6C48000080B584B09E
S1130C4000AFF860B9607A60FB70BB68002B03D119
S1130C50BB69BA691A6002E0BB697A681A60BB6949
S1130C60FA68DA63BB69BA681A640121B869FFF7E4
S1130C704BFF00BF1037BD4680BD000080B58AB071
S1130C8000AFF860B9607A603B6000237B62FB6868
S1130C903B623B6A002B04D140F2E621624801F03A
S1130CA0CDF8BB68002B08D13B6A1B6C002B04D029
S1130CB040F2E7215C4801F0C1F83B68022B08D1FF
S1130CC03B6ADB6B012B04D04FF43A71564801F0B8
S1130CD0B5F800F029FF0346002B07D17B68002BF1
S1130CE004D040F2EB21504801F0A8F8FFF77CFE55
S1130CF03B6A9A6B3B6ADB6B9A4202D33B68022BDA
S1130D0029D13A68B968386A00F08EF9F8613B6A0B
S1130D105B6A002B10D03B6A2433184600F0C2FDF6
S1130D200346002B13D0414B4FF080521A60BFF39F
S1130D304F8FBFF36F8F0AE0FB69002B07D03B4B4B
S1130D404FF080521A60BFF34F8FBFF36F8FFFF7DE
S1130D5075FE012363E07B68002B03D1FFF76EFE71
S1130D6000235CE07B6A002B06D107F114031846CC
S1130D7000F0F6FD01237B62FFF760FE00F0BCFB90
S1130D80FFF732FE3B6A93F844305BB2B3F1FF3FA6
S1130D9003D13B6A002283F844203B6A93F8453030
S1130DA05BB2B3F1FF3F03D13B6A002283F84520D5
S1130DB0FFF744FE3A1D07F114031146184600F0EC
S1130DC0EDFD0346002B24D1386A00F025FA0346D2
S1130DD0002B18D03B6A10337A681146184600F08D
S1130DE041FD386A00F0B0F900F094FB0346002B93
S1130DF07FF47CAF0D4B4FF080521A60BFF34F8FDE
S1130E00BFF36F8F72E7386A00F09EF900F082FB3F
S1130E106CE7386A00F098F900F07CFB0023184670
S1130E202837BD4680BD00BF6C48000004ED00E0DB
S1130E3080B58AB000AFF860B9607A603B60002387
S1130E407B62FB683B623B6A002B04D140F2E941C0
S1130E50734800F0F3FFBB68002B08D13B6A1B6C9E
S1130E60002B04D040F2EA416D4800F0E7FF00F0A7
S1130E705BFE0346002B07D17B68002B04D040F2B5
S1130E80ED41674800F0DAFFFFF7AEFD3B6A9B6B6C
S1130E90FB61FB69002B46D03B6ADB68BB61B96828
S1130EA0386A00F02BF93B68002B21D1FB695A1EEC
S1130EB03B6A9A633B6A1B68002B04D100F044FF31
S1130EC002463B6A5A603B6A1B69002B27D03B6A87
S1130ED01033184600F0E6FC0346002B1FD0514B9C
S1130EE04FF080521A60BFF34F8FBFF36F8F16E03D
S1130EF03B6ABA69DA603B6A5B6A002B0FD03B6AD3
S1130F002433184600F0CEFC0346002B07D0454B93
S1130F104FF080521A60BFF34F8FBFF36F8FFFF70C
S1130F208DFD012377E07B68002B03D1FFF786FD5D
S1130F30002370E07B6A002B06D107F110031846EA
S1130F4000F00EFD01237B62FFF778FD00F0D4FA78
S1130F50FFF74AFD3B6A93F844305BB2B3F1FF3FBD
S1130F6003D13B6A002283F844203B6A93F845305E
S1130F705BB2B3F1FF3F03D13B6A002283F8452003
S1130F80FFF75CFD3A1D07F110031146184600F007
S1130F9005FD0346002B31D1386A00F027F90346DA
S1130FA0002B25D03B6A1B68002B08D1FFF71CFDE2
S1130FB03B6A5B68184600F0D5FDFFF73FFD3B6ACE
S1130FC024337A681146184600F04CFC386A00F065
S1130FD0BBF800F09FFA0346002B7FF455AF114B8A
S1130FE04FF080521A60BFF34F8FBFF36F8F4BE700
S1130FF0386A00F0A9F800F08DFA45E7386A00F085
S1131000A3F800F087FA386A00F0F0F80346002BE2
S11310103FF43AAF002318462837BD4680BD00BFD1
S11310206C48000004ED00E080B586B000AFF860C5
S1131030B9607A6000237B61FB689B6B3B61FB6852
S11310401B6C002B0DD1FB681B68002B4DD1FB687A
S11310505B68184600F0FCFD7861FB6800225A606A
S113106043E07B68002B19D1FB689868FB681B6C14
S11310701A46B96802F05CFCFB689A68FB681B6C52
S11310801A44FB689A60FB689A68FB685B689A423A
S11310902BD3FB681A68FB689A6026E0FB68D86863
S11310A0FB681B6C1A46B96802F042FCFB68DA68FC
S11310B0FB681B6C5B421A44FB68DA60FB68DA6805
S11310C0FB681B689A4207D2FB685A68FB681B6C72
S11310D05B421A44FB68DA607B68022B05D13B69EA
S11310E0002B02D03B69013B3B613B695A1CFB6806
S11310F09A637B6918461837BD4680BD80B582B0B7
S113110000AF786039607B681B6C002B18D07B685B
S1131110DA687B681B6C1A447B68DA607B68DA687F
S11311207B685B689A4203D37B681A687B68DA60E1
S11311307B68D9687B681B6C1A46386802F0F8FB38
S113114000BF0837BD4680BD80B584B000AF78606D
S1131150FFF74AFC7B6893F84530FB7311E07B682A
S11311605B6A002B12D07B682433184600F09AFB8C
S11311700346002B01D000F067FCFB7B013BDBB294
S1131180FB7397F90F30002BE9DC00E000BF7B68AC
S1131190FF2283F84520FFF751FCFFF725FC7B680D
S11311A093F84430BB7311E07B681B69002B12D0A9
S11311B07B681033184600F075FB0346002B01D002
S11311C000F042FCBB7B013BDBB2BB7397F90E30F2
S11311D0002BE9DC00E000BF7B68FF2283F8442099
S11311E0FFF72CFC00BF1037BD4680BD80B584B02E
S11311F000AF7860FFF7F8FB7B689B6B002B02D194
S11312000123FB6001E00023FB60FFF717FCFB6890
S113121018461037BD4680BD80B584B000AF7860F5
S1131220FFF7E2FB7B689A6B7B68DB6B9A4202D127
S11312300123FB6001E00023FB60FFF7FFFBFB6879
S113124018461037BD4680BD80B58CB004AFF86039
S1131250B9603B601346FB80FB889B001846FFF790
S11312605BFA78617B69002B0ED05020FFF754FAAB
S1131270F861FB69002B03D0FB697A691A6305E006
S11312807869FFF78FFA01E00023FB61FB69002B0B
S113129013D0FA8800230393FB690293FB6A01933A
S11312A0BB6A00933B68B968F86800F00FF8F86906
S11312B000F088F80123BB6102E04FF0FF33BB610B
S11312C0BB6918462037BD4680BD000080B586B096
S11312D000AFF860B9607A603B60BB6A1A6B7B68E8
S11312E003F18043013B9B0013443B613B6923F0C2
S11312F007033B613B6903F00703002B04D04FF461
S11313004E712F4800F09AFD00237B6112E0BA6809
S11313107B6913441978BA6A7B69134434330A46E7
S11313201A70BA687B6913441B78002B06D07B695A
S113133001337B617B69092BE9D900E000BFBB6AFB
S1131340002283F83D203B6A022B01D902233B6231
S1131350BB6A3A6ADA62BB6A3A6A1A64BB6A0022F6
S11313605A64BB6A04331846FFF74DFABB6A183354
S11313701846FFF748FABB6ABA6A1A613B6AC3F1B6
S11313800302BB6A9A61BB6ABA6A5A62BB6A0022E8
S11313909A64BB6A002283F84C203A68F968386979
S11313A0FFF7C2FA0246BB6A1A607B6A002B02D0BE
S11313B07B6ABA6A1A6000BF1837BD4680BD00BF99
S11313C08848000080B582B000AF7860FFF70CFB5E
S11313D02A4B1B680133294A1360294B1B68002BD5
S11313E009D1274A7B681360244B1B68012B10D159
S11313F000F036FB0DE0234B1B68002B09D1204B7A
S11314001B68DA6A7B68DB6A9A4202D81C4A7B68EA
S113141013601D4B1B6801331B4A13607B68DB6A36
S113142001229A40194B1B681343184A13607B68C6
S1131430DA6A13469B0013449B00154A1A447B68DE
S1131440043319461046FFF7EAF9FFF7F7FA0D4B94
S11314501B68002B0ED00A4B1B68DA6A7B68DB6AB8
S11314609A4207D20B4B4FF080521A60BFF34F8F52
S1131470BFF36F8F00BF0837BD4680BD982400209E
S1131480EC230020A4240020B4240020A024002065
S1131490F023002004ED00E080B584B000AF786054
S11314A00023FB607B68002B11D0104B1B68002BC2
S11314B004D040F2DC410E4800F0C0FC00F01CF8FF
S11314C00021786800F054FC00F024F8F860FB6810
S11314D0002B07D1074B4FF080521A60BFF34F8F98
S11314E0BFF36F8F00BF1037BD4680BDBC24002002
S11314F08848000004ED00E080B400AF044B1B6892
S11315000133034A136000BFBD4680BC704700BF6F
S1131510BC24002080B584B000AF0023FB6000230E
S1131520BB603E4B1B68002B04D140F2F5713C4874
S113153000F084FCFFF758FA384B1B68013B374A2C
S11315401360364B1B68002B61D1364B1B68002B94
S11315505DD02EE0344BDB68DB68FB60FB6818333E
S11315601846FFF7B7F9FB6804331846FFF7B2F9DA
S1131570FB68DB6A01229A402C4B1B6813432B4AFD
S11315801360FB68DA6A13469B0013449B00284AE5
S11315901A44FB68043319461046FFF740F9FB6808
S11315A0DA6A244B1B68DB6A9A4202D3224B01227B
S11315B01A601D4B1B68002BCCD1FB68002B01D09B
S11315C000F08EFA1D4B1B687B607B68002B10D0EB
S11315D000F038F80346002B02D0174B01221A60A2
S11315E07B68013B7B607B68002BF1D1134B0022AD
S11315F01A60114B1B68002B09D00123BB60104BF0
S11316004FF080521A60BFF34F8FBFF36F8FFFF715
S113161015FABB6818461037BD4680BDBC240020AF
S113162088480000982400205C240020A024002086
S1131630F0230020EC230020AC240020A824002068
S113164004ED00E080B586B000AF00237B614E4B13
S11316501B68002B40F087804C4B1B6801333B61B7
S11316604A4A3B6913603B69002B1AD1484B1B68FB
S11316701B68002B04D040F6E611464800F0DEFB60
S1131680434B1B68FB60444B1B68414A1360424A4E
S1131690FB681360414B1B680133404A136000F040
S11316A01FFA3F4B1B683A699A424DD3384B1B686B
S11316B01B68002B01D1012300E00023002B04D080
S11316C0374B4FF0FF321A603EE0314B1B68DB684A
S11316D0DB68BB60BB685B687B603A697B689A4285
S11316E003D22F4A7B6813602EE0BB68043318468C
S11316F0FFF7F0F8BB689B6A002B04D0BB68183373
S11317001846FFF7E7F8BB68DB6A01229A40254BCD
S11317101B681343234A1360BB68DA6A13469B00B1
S113172013449B00204A1A44BB68043319461046EC
S1131730FFF775F8BB68DA6A1C4B1B68DB6A9A42D0
S1131740B4D301237B61B1E7184B1B68DA6A1649ED
S113175013469B0013449B000B441B68012B07D9C1
S113176001237B6104E0124B1B680133104A1360B0
S1131770104B1B68002B01D001237B617B69184649
S11317801837BD4680BD00BFBC2400209C24002027
S1131790542400208848000058240020B02400204D
S11317A0B8240020A0240020F0230020EC230020F3
S11317B0A8240020AC24002080B584B000AF234BC3
S11317C01B68002B03D0224B01221A6039E0204B06
S11317D000221A601F4B1B687B607B68B3FA83F39B
S11317E0FB70FB78C3F11F03FB601B49FA681346C7
S11317F09B0013449B000B441B68002B04D140F650
S11318000331164800F01AFBFA6813469B00134490
S11318109B00114A1344BB60BB685B685A68BB6891
S11318205A60BB685A68BB6808339A4204D1BB68E3
S11318305B685A68BB685A60BB685B68DB68084AC7
S1131840136000BF1037BD4680BD00BFBC2400201C
S1131850AC240020A0240020F023002088480000AD
S1131860EC23002080B582B000AF786039607B68DB
S1131870002B04D140F61331084800F0DFFA084B7E
S11318801B68183319467868FEF7ECFF01213868A5
S113189000F06EFA00BF0837BD4680BD88480000DE
S11318A0EC23002080B584B000AF78607B68DB68EF
S11318B0DB68BB60BB68002B04D140F66E31214865
S11318C000F0BCFABB6818331846FFF703F81E4B48
S11318D01B68002B1CD1BB6804331846FEF7FAFFC3
S11318E0BB68DB6A01229A40184B1B681343174AF2
S11318F01360BB68DA6A13469B0013449B00144AC6
S11319001A44BB68043319461046FEF788FF05E005
S1131910BB68183319460F48FEF781FFBB68DA6AC3
S11319200D4B1B68DB6A9A4205D90123FB600B4B04
S113193001221A6001E00023FB60FB68184610379F
S1131940BD4680BD88480000BC240020A02400209F
S1131950F02300205C240020EC230020AC24002091
S113196080B582B000AF78607B68002B04D140F66C
S1131970CE31074800F062FA064B1A687B681A6099
S1131980054B1A687B685A6000BF0837BD4680BDA6
S113199088480000B02400209C24002080B584B036
S11319A000AF786039607B68002B04D140F6D831F1
S11319B0224800F043FA3B68002B04D140F6D931A9
S11319C01E4800F03BFAFFF70FF81D4B1B68BB6085
S11319D03B681B68B3F1FF3F02D10023FB6026E0A4
S11319E07B681A68174B1B689A4207D07B685B6850
S11319F0BA689A4202D30123FB6018E07B685B68F3
S1131A00BA68D21A3B681B689A420ED23B681A68BD
S1131A107B685968BB68CB1A1A443B681A607868BB
S1131A20FFF79EFF0023FB6001E00123FB60FFF74B
S1131A3005F8FB6818461037BD4680BD884800008D
S1131A409C240020B024002080B400AF034B01226A
S1131A501A6000BFBD4680BC704700BFAC240020A4
S1131A6080B582B000AF00237B600CE07A68134637
S1131A709B0013449B00124A13441846FEF7A4FE2D
S1131A807B6801337B607B68022BEFD90D48FEF73E
S1131A909BFE0D48FEF798FE0C48FEF795FE0C4899
S1131AA0FEF792FE0B48FEF78FFE0B4B054A1A60B9
S1131AB00A4B054A1A6000BF0837BD4680BD00BF07
S1131AC0F02300202C240020402400205C2400204B
S1131AD07024002084240020542400205824002052
S1131AE080B483B000AF0E4B1B681B68002B01D180
S1131AF0012300E00023002B04D00A4B4FF0FF32F7
S1131B001A6008E0064B1B68DB68DB687B607B6857
S1131B105B68044A136000BF0C37BD4680BC704745
S1131B2054240020B824002080B483B000AF0B4BB1
S1131B301B68002B02D101237B6008E0084B1B6863
S1131B40002B02D102237B6001E000237B607B68D1
S1131B5018460C37BD4680BC704700BFA424002043
S1131B60BC24002080B584B000AF78607B68FB6043
S1131B707B68002B62D0FB68DA6A324B1B68DB6A35
S1131B809A425BD2FB689B69002B06DB2D4B1B68DA
S1131B90DB6AC3F10302FB689A61FB685969FB685D
S1131BA0DA6A13469B0013449B00274A1344994264
S1131BB001D1012300E00023002B3AD0FB68043359
S1131BC01846FEF787FE0346002B15D1FB68DA6A38
S1131BD01D4913469B0013449B000B441B68002BB8
S1131BE00AD1FB68DB6A012202FA03F3DA43174BDA
S1131BF01B681340154A1360124B1B68DA6AFB68B2
S1131C00DA62FB68DB6A01229A40104B1B681343BB
S1131C100E4A1360FB68DA6A13469B0013449B0068
S1131C20094A1A44FB68043319461046FEF7F7FDC7
S1131C3004E0044B1B68DA6AFB68DA6200BF103701
S1131C40BD4680BDEC230020F0230020A02400200A
S1131C5080B584B000AF78607B68BB600023FB6014
S1131C607B68002B62D0344B1B68BA689A4204D05C
S1131C7040F6D461314800F0E1F8BB685B6C002B9E
S1131C8004D140F6D6612D4800F0D8F8BB685B6CEF
S1131C905A1EBB685A64BB68DA6ABB681B6C9A42FA
S1131CA044D0BB685B6C002B40D1BB68043318463E
S1131CB0FEF710FE0346002B15D1BB68DA6A2049F3
S1131CC013469B0013449B000B441B68002B0AD152
S1131CD0BB68DB6A012202FA03F3DA43194B1B687F
S1131CE01340184A1360BB681A6CBB68DA62BB689D
S1131CF0DB6AC3F10302BB689A61BB68DB6A012239
S1131D009A40104B1B6813430E4A1360BB68DA6A8F
S1131D1013469B0013449B00094A1A44BB680433CE
S1131D2019461046FEF77BFD0123FB60FB6818464D
S1131D301037BD4680BD00BFEC230020884800005A
S1131D40F0230020A024002080B400AF074B1B68C0
S1131D50002B04D0054B1B685A6C01325A64034BA8
S1131D601B681846BD4680BC704700BFEC230020AA
S1131D7080B584B000AF78603960294B1B68FB6084
S1131D80284B1B6804331846FEF7A4FD0346002BBA
S1131D900BD1244B1B68DB6A012202FA03F3DA43FA
S1131DA0214B1B681340204A13607B68B3F1FF3F4B
S1131DB00AD13B68002B07D01A4B1B680433194621
S1131DC01A48FEF72CFD26E0FA687B681344BB60D2
S1131DD0144B1B68BA685A60BA68FB689A4209D205
S1131DE0134B1A680F4B1B68043319461046FEF751
S1131DF039FD10E00F4B1A680A4B1B68043319466F
S1131E001046FEF72FFD0C4B1B68BA689A4202D2AB
S1131E10094ABB68136000BF1037BD4680BD00BFD0
S1131E209C240020EC230020A024002084240020F3
S1131E305824002054240020B824002080B483B007
S1131E4000AF78603960FEE780B487B000AFF86017
S1131E50B9607A60FB6803F10473DA00BB68134469
S1131E609B007B617B697A681A6000BF1C37BD46A2
S1131E7080BC704780B483B000AF78600F4B9B6B1D
S1131E8003F00103002B13D10C4B1B6803F44053E4
S1131E90002B0DD0094B1B6803F00803082B07D057
S1131EA000BF064BDA6B7B681340002BF9D100E0CE
S1131EB000BF0C37BD4680BC704700BF001008400F
S1131EC080B582B000AF0346FB71FB79012B05D1CD
S1131ED00D4B1B6803F00303002B07D1FB79002B88
S1131EE004D04FF481710948FFF7A8FFFB7983F010
S1131EF00103DBB21A4603210348FFF7A5FF00BF25
S1131F000837BD4680BD00BF00100840AC48000043
S1131F1080B582B000AF786039607B68002B04D054
S1131F204FF489710648FFF789FF0220FFF7A2FFEB
S1131F30044A3B68D36000BF0837BD4680BD00BF7C
S1131F40AC4800000010084080B582B000AF786053
S1131F507B68002B04D04FF498710448FFF76EFFA0
S1131F60034BDB6818460837BD4680BDAC4800000B
S1131F700010084080B487B000AFF860B9607A60A0
S1131F80FB6803F10473DA00BB6813449B007B61B4
S1131F907B697A681A6000BF1C37BD4680BC7047F5
S1131FA080B485B000AF786039607B6803F1047356
S1131FB0DA003B6813449B00FB60FB681B6818460F
S1131FC01437BD4680BC704780B584B000AF7860DC
S1131FD07B68002B03D07B68B3F5004F04D940F62F
S1131FE0A9210748FFF72AFF7B68B3FA83F3DBB222
S1131FF0C3F11F03FB60FB6818461037BD4680BD64
S11320002849000080B400AF034BDB6C1B0EDBB22D
S11320101846BD4680BC7047B081E00F80B400AF65
S1132020034BDB6C1B0CDBB21846BD4680BC70470F
S1132030B081E00F80B582B000AFFFF7EFFF034639
S11320404A2B04D0792B02D0482B23D024E0174B01
S11320501B699BB21B029BB203F47C53FB80134BA2
S11320609B691B091B0103F0F0039AB2FB8813431D
S1132070FB800E4BDB691B0903F00F039AB2FB884C
S11320801343FB80FB88B3F5017F01D3084B09E0C0
S1132090084B07E0074B05E040F659410648FFF7B7
S11320A0CDFE002318460837BD4680BDD0FF0FE0A3
S11320B000366E010048E8018C49000080B584B008
S11320C000AF78600123FB60FFF7B4FF02467B6832
S11320D0934204D80023FB600023BB600BE0FFF7AE
S11320E0A9FF03465B007A689A4202D80123BB60C9
S11320F001E00223BB60FA681E210848FFF73AFF9B
S1132100064B5B6823F48072BB681B0203491343CC
S11321104B6000BF1037BD4680BD00BF00800C403F
S113212080B582B000AF1E210448FFF739FF786004
S11321307B6818460837BD4680BD00BF00800C4050
S113214080B582B000AF244B5B6903F4E063B3F560
S1132150007F1CD0B3F5007F05D8002B25D0B3F544
S1132160807F1FD02AE0B3F5C06F24D0B3F5E06FB1
S11321701ED0B3F5407F21D1FFF744FF0346122B55
S113218002D9164B7B6021E0154B7B601EE0FFF704
S113219039FF0346122B02D9124B7B6016E0124B17
S11321A07B6013E0114B7B6010E0114B7B600DE012
S11321B0104B7B600AE0104B7B6007E000237B60E0
S11321C040F6D8410D48FFF739FE00BF7B6818463A
S11321D00837BD4680BD00BF00800C40804F120010
S11321E040420F0040B56400C0CF6A00C0D8A700C9
S11321F0809FD500406F4001003FAB018C49000037
S113220080B582B000AF0F4800F046FA0346FB7079
S1132210FB78072B05D0092B07D1FEF78DF97860E1
S11322200BE0FFF78DFF786007E000237B6040F64A
S113223012510548FFF702FE00BF7B6818460837B5
S1132240BD4680BD06000E008C49000090B585B0E7
S113225000AF78600023BB607B683B4A934208D0A0
S11322603A4A934205D04FF475613948FFF7E6FDC9
S113227000E000BF786800F00FFA0346FB607B685B
S1132280314A934203D0314A934206D00CE0314B99
S11322909B6A03F00303FB600CE02E4B9B6A9B08D4
S11322A003F00303FB6005E040F67F712848FFF765
S11322B0C5FD00BFFB68032B38D801A252F823F0F8
S11322C0F7220000D1220000D9220000E122000000
S11322D0FEF7C0F9B86032E0FEF7CCF9B8602EE042
S11322E0FEF710F90446FFF71BFF0346013324FAF7
S11322F003F3BB6023E00023BB607B68124A934274
S113230003D07B68114A934218D1124B9A6A7B68B6
S11323100D498B4201D1102300E0142322FA03F368
S1132320002B0BD0FEF79EF9B86007E00023BB60DA
S113233040F6AA710648FFF781FD00E000BFBB68C4
S113234018461437BD4690BD02001E00030020004D
S11323508C49000000800C4080B483B000AF7860EA
S1132360094B5B6D03F00103002B07D100BF064B43
S11323701A6D7B681340002BF9D100E000BF0C37C5
S1132380BD4680BC704700BF00800C4080B582B061
S113239000AF104800F080F90346FB70FB78032B74
S11323A007D0092B09D0022B0BD1FEF763F9786013
S11323B00AE0FEF74FF9786006E0FEF7BDF87860B2
S11323C002E000237B6000BF7B6818460837BD46E7
S11323D080BD00BF0723260080B586B000AF7860BB
S11323E00B46FB7000233B617B681B0A03F00F0361
S11323F0013B092B33D801A252F823F03924000001
S11324003F240000252400005F2400005F24000016
S1132410452400004F2400005F2400005F240000D6
S1132420592400001B4B7B611B4800F043F8034612
S11324301846FFF743FE18E0184B7B6115E0184B74
S11324407B6112E0174B7B6101233B610DE0164B6E
S11324507B6110233B6108E0144B7B6105E041F292
S1132460DB311348FFF7EAFC10E07B681B0B03F039
S11324701F03FB603B69002B02D03869FFF76CFF38
S1132480FB781A46F9687869FFF774FD1837BD467A
S113249080BD00BF40800C400043020008800C4017
S11324A044800C4058800C4060800C4078800C4084
S11324B08C49000090B585B000AF78607B6803F468
S11324C07813B3F5D01F00F0AB80B3F5D01F1AD842
S11324D0B3F5602F00F0BF80B3F5602F08D8B3F5D3
S11324E0003F3CD0B3F5802F2DD0002B27D0BEE089
S11324F0B3F5901F3CD0B3F5B01F47D0B3F5801FA0
S113250000F0AD80B3E0B3F5181F00F0AC80B3F574
S1132510181F0AD8B3F5F01F25D0B3F5001F7AD0E1
S1132520B3F5E01F00F08980A1E0B3F5301F4ED071
S1132530B3F5381F62D0B3F5281F35D097E0FDF707
S1132540FBFFF8609BE0FDF7F7FFF8604E4B9B68DC
S113255003F00F03FA6822FA03F3FB608FE0FDF740
S1132560D1FFF8608BE04948FFF770FEF86086E021
S11325704648FFF76BFEF860434B9B6E1B0903F064
S11325800F03FA6822FA03F3FB6078E03F48FFF791
S11325905DFEF8603C4B9B6E1B0A03F00F03FA6868
S11325A022FA03F3FB606AE03848FFF74FFEF86055
S11325B0354B9B6E1B0B03F003041020FFF704FD47
S11325C003462344FA6822FA03F3FB6057E02F48DA
S11325D0FFF73CFEF8602C4B9B6E1B0B03F00303D0
S11325E0FA6822FA03F3FB60274BDB6F03F007035F
S11325F00133FA68B2FBF3F3FB6040E02348FFF7D2
S113260025FEF860204B9B6E03F00303FA6822FA60
S113261003F3FB6033E01E48FFF718FEF8602EE07A
S11326201B48FFF713FEF860174B1B6F03F00303FF
S1132630FA6822FA03F3FB6021E01548FFF706FE6F
S1132640F860114B1B6F1B0903F00303FA6822FAAD
S113265003F3FB6013E0FFF7D3FDF8600FE0FFF72F
S11326606FFDF8600BE0FFF791FEF86007E00023D0
S1132670FB6041F201510748FFF7E0FB00BFFB6834
S113268018461437BD4690BD00800C4002001E0061
S1132690030020008C49000080B584B000AF78604E
S11326A00123FB737B6803F00F03BB60BB68013B32
S11326B0062B00F2938001A252F823F0D9260000E1
S11326C00F2700004B270000DD270000DD27000056
S11326D087270000A9270000474BDB6A03F47053E7
S11326E0B3F5805F09D0B3F5005F03D0B3F5006F95
S11326F006D008E00223FB7308E00323FB7305E024
S11327000423FB7302E00523FB7300BF6EE03A4B26
S11327109B6A03F00303022B06D0032B07D0012B83
S113272008D10323FB730FE00223FB730CE00623A1
S1132730FB7309E0304B9B6A03F48033002B02D017
S11327400A23FB7300E000BF50E02B4B9B6A03F0AD
S11327500C03082B06D00C2B07D0042B08D1032321
S1132760FB730FE00223FB730CE00623FB7309E009
S1132770214B9B6A03F48013002B02D00A23FB73C2
S113278000E000BF32E01C4B1B6803F08053002BB9
S113279003D0B3F1805F03D028E00723FB7302E08A
S11327A00923FB7300BF21E0134BDB6A03F460339E
S11327B0B3F5803F08D0B3F5003F08D0B3F5004F20
S11327C008D10923FB7308E00223FB7305E003230C
S11327D0FB7302E00123FB7300BF07E00023FB73DC
S11327E041F628110548FFF729FB00BFFB7B18467B
S11327F01037BD4680BD00BF00800C408C490000EE
S113280080B582B000AF03463960FB71FB79002BC1
S11328101FD0FB79012B19D0FB79022B13D0FB7944
S1132820032B0DD0FB79042B07D0FB79052B02D1A8
S113283041F6FF730FE000230DE04FF6FF730AE04B
S11328404FF6FF7307E04FF6FF7304E04FF6FF7394
S113285001E04FF6FF733A68134103F00103002BC4
S113286004D14FF477710A48FFF7E8FA01223B6874
S113287002FA03F30749FA7918461346DB001344B6
S11328809B000B441433186000BF0837BD4680BD5D
S1132890A04900000060004080B582B000AF03464C
S11328A03960FB71FB79002B1FD0FB79012B19D008
S11328B0FB79022B13D0FB79032B0DD0FB79042B6E
S11328C007D0FB79052B02D141F6FF730FE00023FB
S11328D00DE04FF6FF730AE04FF6FF7307E04FF683
S11328E0FF7304E04FF6FF7301E04FF6FF733A689D
S11328F0134103F00103002B04D140F20B410A48B9
S1132900FFF79CFA01223B6802FA03F30749FA79BC
S113291018461346DB0013449B000B441033186025
S113292000BF0837BD4680BDA049000000600040DC
S113293080B584B000AFB9607B600346FB73134677
S1132940BB73FB7B002B1FD0FB7B012B19D0FB7BC4
S1132950022B13D0FB7B032B0DD0FB7B042B07D066
S1132960FB7B052B02D141F6FF730FE000230DE042
S11329704FF6FF730AE04FF6FF7307E04FF6FF735D
S113298004E04FF6FF7301E04FF6FF73BA6813419A
S113299003F00103002B04D140F21B113948FFF767
S11329A04DFABB7B002B0DD07B68002B05D0FB7B45
S11329B0B9681846FFF770FF04E0FB7BB968184656
S11329C0FFF71EFFBB68072B20D82F49FA7B13465D
S11329D0DB0013449B000B4404331A68BB689B0060
S11329E00F2101FA03F3DB431340B97BBA68920069
S11329F001FA02F211462448FA7B19431346DB001C
S1132A0013449B0003440433196025E01E49FA7BF8
S1132A101346DB0013449B000B4408331A68BB685D
S1132A2003F18043083B9B000F2101FA03F3DB43CE
S1132A3002EA0301BA7BBB6803F18043083B9B00B5
S1132A4002FA03F31048FA7B19431346DB001344DC
S1132A509B00034408331960BB7B002B0DD17B68BA
S1132A60002B05D0FB7BB9681846FFF715FF04E07F
S1132A70FB7BB9681846FFF7C3FE00BF1037BD469D
S1132A8080BD00BF044A00000060004080B483B0F1
S1132A9000AF786039607B683A681A6300BF0C370E
S1132AA0BD4680BC704780B487B000AFF860B960A1
S1132AB07A60FB6803F10473DA00BB6813449B007B
S1132AC07B617B697A681A6000BF1C37BD4680BC95
S1132AD0704780B485B000AFF860B9607A60FB6875
S1132AE01A68BB68DB431A407B681A43FB681A60A8
S1132AF000BF1437BD4680BC704780B483B000AFBC
S1132B00786001E07B68DB697B68DB6803F48073D1
S1132B10002BF7D100BF0C37BD4680BC70470000C6
S1132B2080B588B000AFF860B9607A60FB707B68EC
S1132B30002B04D14FF48A715448FFF77FF97B6866
S1132B40002B00F09E80FB7803F00303FB70FB680E
S1132B501B6823F44072FB681A60F868FB781B0258
S1132B601A464FF44071FFF7B4FFBB68002B16D12F
S1132B70FB68474A934204D14648FFF79BFCB86080
S1132B800DE0FB68444A934204D14448FFF792FCA9
S1132B90B86004E04FF497713C48FFF74FF94FF0E9
S1132BA0FF33FB61FB681B6803F00203002B10D0AA
S1132BB0FB78012B07D0022B08D0002B00D019E0A2
S1132BC0374BFB6116E0374BFB6113E0364BFB617F
S1132BD010E0FB78012B07D0022B08D0002B00D08B
S1132BE008E0324BFB6105E0314BFB6102E0314B05
S1132BF0FB6100BFBA68FB699A4204D840F26311D2
S1132C002248FFF71BF9FB782B4AD35C7B617B6975
S1132C107A6802FB03F33B613B69002B05D14FF457
S1132C20BA711A48FFF70AF92CE07B689B00BA686E
S1132C30D21A3B6913445A1E3B69B2FBF3F3013BBE
S1132C40BB61BB69002B04DA4FF4BD710F48FFF779
S1132C50F5F8BB69B3F5007F04D340F27B110B4850
S1132C60FFF7ECF8FB681B6803F00203002B04D0A9
S1132C70BB69002B01D10123BB61BA69FB681A61EE
S1132C8000E000BF2037BD4680BD00BF1C4A0000E5
S1132C9000A0004000B2040000A4004000C20400F0
S1132CA040164000C0D8A7008050740180841E00E4
S1132CB040548900002D3101184A000080B582B0CB
S1132CC000AF78600B46FB707B680B4A934208D0D8
S1132CD07B680A4A934204D04FF4CA710848FFF74C
S1132CE0ADF87B68FA7800211846FFF7DCFE00BFD8
S1132CF00837BD4680BD00BF00A0004000A40040CE
S1132D001C4A000080B582B000AF786039607B68EF
S1132D10174A934208D07B68164A934204D040F283
S1132D20A9111548FFF78AF87B6800225A631349F2
S1132D307868FFF7ABFE78683B685B7883F0010343
S1132D40DBB21A460121FFF7AEFE3B6859683B68C7
S1132D509A683B681B7B7868FFF7E2FE3B681B7848
S1132D6019467868FFF7AAFF00BF0837BD4680BD43
S1132D7000A0004000A400401C4A0000FFFF010026
S1132D8080B588B000AF78607B68A24A934208D0CF
S1132D907B68A14A934204D040F2FF119F48FFF799
S1132DA04DF87B689B4A934202D19D4BBB6109E07D
S1132DB07B68994A934202D19A4BBB6102E06FF05F
S1132DC0030314E2BB699B687B617B689B6A3B617C
S1132DD03B6903F4C063002B14D03B6903F4007314
S1132DE0002B03D0BB69FD225A7007E03B6903F452
S1132DF08063002B02D0BB69FE225A70BB69092292
S1132E001A70DFE1BB691B78082B00F2C78101A2AD
S1132E1052F823F0392E00008B2E0000172F0000EB
S1132E206D2F0000BF2F000029300000B1300000DA
S1132E30F1300000813100007B695B8803F01003EE
S1132E40002B09D07B691B881B0A9BB203F0060385
S1132E5043F0F003FB610EE07B691B8803F0FE0383
S1132E60FB617B695B8803F00203002B03D0FB69E1
S1132E7043F00103FB61BB6901221A707B68FA69A4
S1132E805A627B6801225A609CE13B6903F080032B
S1132E90002B0DD080217868FFF7F8FDBB69FF2275
S1132EA05A70BB6908221A707B6802225A607EE15C
S1132EB03B6903F04003002B00F0798140217868DE
S1132EC0FFF7E4FD7B695B8803F01003002B08D057
S1132ED0BB6902221A707B691B88DAB27B685A626A
S1132EE065E17B695B8803F00203002B0FD0BB69AB
S1132EF007221A70BB691B797A69DB0013441B89AA
S1132F00012B40F054817B6808225A604FE1BB6971
S1132F1005221A704AE13B6903F08003002B0DD0AF
S1132F2080217868FFF7B2FDBB69FF225A70BB6944
S1132F3008221A707B6802225A603AE13B6903F066
S1132F404003002B00F0358140217868FFF79EFD97
S1132F507B695B8803F00203002B03D0BB69032267
S1132F601A7023E1BB6905221A701FE17B695B8833
S1132F7003F01003002B09D07B691B881B0A9BB24A
S1132F8003F0060343F0F003FB6104E07B691B8854
S1132F9003F0FE03FB617B695B8803F00403002BF1
S1132FA003D0FB6943F00103FB61BB6904221A707F
S1132FB07B6801225A607B68FA695A6202E13B69C4
S1132FC003F08003002B0DD080217868FFF75EFDAD
S1132FD0BB69FF225A70BB6908221A707B680222FF
S1132FE05A60E8E03B6903F04003002B00F0E38003
S1132FF040217868FFF74AFD7B695B8803F004038E
S1133000002B03D0BB6907221A70D4E0BB690522E8
S11330101A70CBE000A0004000A400401C4A00004D
S1133020C0240020CC240020BB695A88BB691B79CA
S11330307969DB000B441B899A4224D3BB690022C3
S11330405A80BB691B790133DAB2BB691A717B6997
S11330505B8803F00403002B03D0BB6903221A70BE
S1133060A4E07B695B8803F00103002B04D1BB69F6
S11330701B79012B40F29980BB6908221A707B6886
S113308002225A609EE0BB691B797A69DB00134413
S11330905A68BB695B88591C88B2B9694880134473
S11330A01B781A467B685A62BB6906221A7089E04B
S11330B03B6903F08003002B0DD080217868FFF773
S11330C0E5FCBB69FF225A70BB6908221A707B6851
S11330D002225A6071E03B6903F04003002B6CD07C
S11330E040217868FFF7D2FCBB6905221A705DE0C5
S11330F03B6903F02003002B61D0BB691B797A691B
S1133100DB0013441B89FB607B68DB69FB72BB69D2
S11331105B881A46FB6893420ED9BB691B797A69AE
S1133120DB0013445A68BB695B88591C88B2B969CF
S113313048801344FA7A1A70BB695B881A46FB68A4
S113314093420CD8FB68012B02D17B6808225A6099
S1133150BB6908221A707B6802225A602FE07B68E0
S113316004225A60FB68012B29D9BB695B881A4683
S1133170FB68013B9A4222D17B6808225A601EE018
S11331803B6903F48073002B1BD04FF48071786883
S1133190FFF77CFCBB6909221A7012E0BB69FB22B1
S11331A05A70BB6909221A700CE000BF0DE600BF1B
S11331B008E000BF06E000BF04E000BF02E000BF7B
S11331C000E000BFBB691B78092B0BD17B68002290
S11331D05A63BB6993F90130012B05D1BB69002205
S11331E05A7001E0012302E0BB6993F901301846EB
S11331F02037BD4680BD00BF80B584B000AF786085
S113320039607B68354A934208D07B68344A9342DC
S113321004D040F24B313348FEF710FE3B68002BDC
S113322004D14FF453712F48FEF708FE7B682B4AF4
S1133230934202D12C4BFB6009E07B68284A9342FD
S113324002D12A4BFB6002E06FF0030342E07B688B
S11332509B6803F00103002B02D07B6820225A6094
S11332603B685B8803F00203002B03D03B681B8997
S1133270002B09D03B685B8803F00403002B06D0C5
S11332803B681B8A002B02D16FF0030322E0FB682A
S113329000221A70FB6801225A70FB6800225A80CF
S11332A0FB6800221A71FB683A689A607B68C02246
S11332B05A607868FFF721FC0D497868FFF7E6FB50
S11332C07B685B6B43F4FC627B685A637868FFF746
S11332D057FD034618461037BD4680BD00A0004088
S11332E000A400401C4A0000C0240020CC2400207C
S11332F0FFFF010080B487B000AFF860B9607A6066
S1133300FB6803F10473DA00BB6813449B007B6120
S11333107B697A681A6000BF1C37BD4680BC704761
S113332080B400AF034B00229A6000BFBD4680BC4E
S1133330704700BF00600C4080B400AF034B4AF6F6
S1133340E8529A6000BFBD4680BC704700600C40E4
S113335080B582B000AF104B01229A600F4B9B687E
S113336003F001037B607B68002B01D0FFF7E4FFCF
S1133370012200210A48FFF7BDFF0022002108486E
S1133380FFF7B8FF7B68002B01D0FFF7C9FF00BF30
S11333900837BD4680BD00BF00A00C4000600C4053
S11333A024600C4080B485B000AF174B5B687B6031
S11333B00023FB600023BB601CE0144ABB68DB00F5
S11333C013445B683B60114ABB6852F833207B6846
S11333D01340002B0BD07A683B681340002B06D1B6
S11333E00A4ABB6852F83330FA681343FB60BB687F
S11333F00133BB60BB680F2BDFD9FB681846143759
S1133400BD4680BC704700BF00A00C40304A00009D
S113341080B584B000AF78607B68002B03D146216F
S11334201B48FEF70BFD1B4B5B69DBB29B00DBB259
S113343003F03C03FB73174B1B699B09DBB203F0DE
S11334400303DAB2FB7B1343FB737B68FA7B9A704A
S1133450104B1B69DBB203F03F03DAB27B685A708E
S11334600C4B9B691B09DBB21B01FB73094BDB692A
S11334701B09DBB203F00F03DAB2FB7B1343FB73CC
S11334807B68FA7B1A7000BF1037BD4680BD00BF51
S1133490B04A0000D0FF0FE080B483B000AF786082
S11334A0034A7B68136300BF0C37BD4680BC70477A
S11334B00010084080B584B000AF0020FEF744FD42
S11334C0024632239A420AD00020FEF7F9FC322346
S11334D019460020FEF71CFD0120FEF7F1FC072031
S11334E0FFF7DAFFEFF311824FF0BF0383F3118884
S11334F0BFF36F8FBFF34F8FBA607B60FEF7A2F804
S1133500F860FB68002B07D0084B4FF080521A601C
S1133510BFF34F8FBFF36F8F00233B603B6883F390
S1133520118800BF1037BD4680BD00BF04ED00E028
S113353080B483B000AF78604FF06043D3F8803E2E
S113354003F00103002B13D04FF06043D3F8003E87
S113355003F00103002B0BD000E000BF4FF06043E9
S11335601B68002BF9D04FF060437A68D2B21A700E
S11335707B6818460C37BD4680BC704780B400AFEA
S1133580034BDB6C1B0EDBB21846BD4680BC704798
S1133590B081E00F80B582B000AF0E4B01221A64F7
S11335A0FFF7ECFF0346FB713B1D1846FFF730FFA6
S11335B0FB790F2B0AD93B79022B07D9064B1B68E1
S11335C023F05003044A43F01003136000BF08378C
S11335D0BD4680BD00000C40C0800C4080B584B066
S11335E000AF78607B68FB60FB681B68BB60FB68AE
S11335F05B681846FCF7B0FEB868FDF74DFFF6E7C8
S113360080B584B000AF7860FF2000F039F903463C
S1133610FB73FB7B002B03D0034800F09DF9F3E719
S1133620024800F099F9EFE7C84A0000D44A0000C4
S113363080B584B002AFFFF7ADFFFCF7ADFEFCF739
S113364037FFFCF73DFE0020FCF766FE0120FCF787
S113365063FE00210020FDF72DF8AE23FB71FB79FA
S1133660184600F053F80023019301230093124BF2
S1133670962212491248FDF7E7FD00230193012326
S11336800093104B962210490D48FDF7DDFD0023F1
S1133690019301230093002396220C490C48FDF763
S11336A0D3FDBB1D1946072000F08AF8BB791846E4
S11336B000F052F9F5E700BF10000020E44A0000D2
S11336C0DD35000018000020F04A0000FC4A00002C
S11336D00136000080B586B000AFF860B9607A604A
S11336E000237B6109E0BB685A1CBA601B7818464A
S11336F0FFF71EFF7B6901337B617A697B689A421D
S1133700F1DB7B6818461837BD4680BD90B587B09D
S113371000AF0346FB71032200210120FDF758FA94
S11337200246224B1A60214B1B68002B06D01F4B0C
S11337301868002300220021FDF7A0FA1B4B18682B
S113374000234FF0FF320021FDF772FB0346012BEB
S113375028D1174B07F108040FCB84E80F0001218F
S11337601448FEF739FE0123082204210220FFF742
S1133770DFF80123082205210220FFF7D9F80E4BB8
S113378003229A6307F1080319460B48FFF7BAFAB4
S11337900A4AFB791370054B1868002300220021A4
S11337A0FDF76CFA00BF1C37BD4690BDE82400202D
S11337B00C4B000000C2040000A40040D8240020E8
S11337C080B58AB000AF03463960FB71294B186895
S11337D000234FF0FF320021FDF72AFB0346012BA3
S11337E03BD1254B1B789BB23B8204237B82FB1D80
S11337F07B6101233B8307F10C03FB6101233B84C1
S113380007F1100319461D48FFF7F6FC034687F835
S1133810273005E01948FFF7B3FA034687F8273045
S113382097F92730012BF5D097F92730002B08D0D2
S1133830104B1868002300220021FDF71FFA002313
S113384013E03A7B3B681A700A4B18680023002285
S11338500021FDF713FA012307E0064B1868002343
S113386000220021FDF70AFA002318462837BD4636
S113387080BD00BFE8240020D824002000A400401C
S113388080B584B000AF0346FB7107F10F02FB79EA
S113389011461846FFF794FFFB7B152B04D106480D
S11338A000F05AF8012303E0044800F055F800231F
S11338B018461037BD4680BD1C4B0000244B000049
S11338C008B5074B044613B10021AFF30080054B44
S11338D01868836A03B19847204600F05FFF00BF71
S11338E000000000384B000070B500250C4E0D4C54
S11338F0A41BA410A54209D100F052FF00250A4ED2
S11339000A4CA41BA410A54205D170BD56F825305D
S113391098470135EEE756F8253098470135F2E728
S113392084000020840000208400002088000020FF
S113393010B5431E0A44914200D110BD11F8014B49
S113394003F8014FF7E703460244934200D170475E
S113395003F8011BF9E700000FB40A4B13B51C6808
S113396024B1A36913B9204600F04EF805AB049ABC
S1133970A1682046019300F053F902B0BDE810405D
S113398004B0704720000020002310B50446C0E9AD
S11339900033836081814366C281C0E9043383615B
S11339A0194608225C30FFF7CEFF054B24626362A0
S11339B0044BA362044BE362044B236310BD00BFBA
S11339C0794100009B410000D3410000F741000011
S11339D0014900F085B800BFD144000070B56825E6
S11339E04A1E55430E4605F1740100F097F804464B
S11339F040B10021C0E900160C30A06005F1680256
S1133A00FFF7A1FF204670BD836910B5044633BBA0
S1133A10C0E912330365124B124A1B688262984252
S1133A2004BF0123836100F01FF86060204600F0AA
S1133A301BF8A060204600F017F80022E060042183
S1133A406068FFF7A1FF01220921A068FFF79CFF2E
S1133A5002221221E068FFF797FF0123A36110BD42
S1133A60384B0000D1390000F8B51B4B07461E68DF
S1133A70B36913B93046FFF7C7FF4836D6E90134B6
S1133A80013B03D5336833B13668F7E7B4F90C501A
S1133A906DB16834F4E704213846FFF79FFF3060C6
S1133AA00028F1D10C2304463B602046F8BD0B4BA3
S1133AB06566C4E90055A560C4E90335C4E9055544
S1133AC00822294604F15C00FFF73DFFC4E90D55C7
S1133AD0C4E91255E9E700BF384B00000100FFFFBD
S1133AE02DE9F84380468946002600F1480414B9BC
S1133AF03046BDE8F883D4E90175013F01D5246857
S1133B00F5E7AB89012B07D9B5F90E30013303D0A2
S1133B1029464046C84706436835EEE770B5CD1CD4
S1133B2025F0030508350C2D38BF0C25002D06465D
S1133B3001DBA94203D90C233360002070BD00F0DF
S1133B4075FD214A1468214691B9204C23681BB99C
S1133B50304600F001FB20602946304600F0FCFAB4
S1133B60431C24D10C233046336000F060FDE4E7AD
S1133B700B685B1B18D40B2B0FD90B60CC18CD50E2
S1133B80304600F054FD04F10B00231D20F0070023
S1133B90C31AD3D05A42E250D0E74B688C4216BFC6
S1133BA0636013600C46EBE70C464968CCE7C41C21
S1133BB024F00304A04205D0211A304600F0CCFAC8
S1133BC00130CFD02560DBE7DC240020E024002096
S1133BD0936810B4013B002B936007DA9469A34205
S1133BE001DB0A2902D110BC00F00ABB1368581C7F
S1133BF010601970084610BC7047F8B506460F46A9
S1133C001446D518AC4201D1002007E03A4614F816
S1133C10011B3046FFF7DCFF431CF3D1F8BD000065
S1133C202DE9F04F9DB00C4617460393064618B194
S1133C3083690BB9FFF7E8FE7B4B9C4257D174684C
S1133C40A38918075DD52369002B5AD00023099353
S1133C5020238DF8293030234FF0010B8DF82A30C2
S1133C60B846454615F8013B0BB1252B54D1B8EBAA
S1133C70070A0BD053463A4621463046FFF7BDFFAC
S1133C80013000F0C280099B5344099398F8003036
S1133C90002B00F0BA8000234FF0FF32CDE905235A
S1133CA0049307938DF853301A93A846052218F805
S1133CB0011B5E4800F0ACFC049B78BBD90644BFF2
S1133CC020228DF853201A0744BF2B228DF853204D
S1133CD02A782A2A2AD0A84600200A25079A41468B
S1133CE011F8013B303B092B69D960B324E0504BF8
S1133CF09C4201D1B468A3E74E4B9C4208BFF468D0
S1133D009EE72146304600F0DFFA00289ED04FF0AF
S1133D10FF301DB0BDE8F08FA846A2E7434A4546F0
S1133D20801A0BFA00F018430490BEE7039A111DA1
S1133D3012680391002A01DB079204E0524243F027
S1133D4002030792049398F800302E2B0ED198F8B2
S1133D5001302A2B38D1039B08F102081A1D1B6875
S1133D600392002BB8BF4FF0FF330593324D03226B
S1133D7098F80010284600F04BFC40B14023401B4B
S1133D8003FA00F0049B08F101080343049398F834
S1133D9000100622294808F101078DF8281000F0C8
S1133DA037FC002837D0264B1BBB039B073323F07B
S1133DB0070308330393099B4B44099350E705FB1E
S1133DC00232012088468AE700230A25194608F1B1
S1133DD001080593404610F8012B303A092A03D90B
S1133DE0002BC3D00591C1E705FB012101238046C7
S1133DF0F0E703AB00932246124B04A93046AFF31D
S1133E000080B0F1FF3F8146D5D1A3895B063FF521
S1133E107EAF09987DE703AB00932246094B04A9C2
S1133E20304600F087F8ECE75C4B00009C4B000048
S1133E307C4B00003C4B0000A24B0000A64B000052
S1133E4000000000FB3B00002DE9F04791461F46AF
S1133E508A680B6906469342B8BF1346C9F8003016
S1133E6091F843200C46DDF8208012B10133C9F8E3
S1133E7000302368990642BFD9F800300233C9F8EC
S1133E800030256815F0060507D104F1190AE36826
S1133E90D9F800209B1AAB4229DC94F843302268FD
S1133EA0003318BF012392062ED404F1430239468D
S1133EB03046C047013021D02368E56803F006038B
S1133EC0042B18BF0025D9F800204FF0000908BFC3
S1133ED0AD1AA368226908BF25EAE5759342C4BFF9
S1133EE09B1AED181A344D451AD1002008E001231D
S1133EF0524639463046C047013003D14FF0FF30B7
S1133F00BDE8F0870135C2E73020E11881F84300AD
S1133F105A1C94F845102244023382F84310C4E733
S1133F200123224639463046C0470130E6D009F124
S1133F300109D8E72DE9F04301F1430C0C46097E51
S1133F4085B06E291746064698460C9A00F0B38051
S1133F5022D8632936D00AD8002900F0B98058291C
S1133F6000F0838004F1420584F8421032E06429B1
S1133F7001D06929F6D120681368050603F104010C
S1133F802AD51B681160002B03DA2D225B4284F8CA
S1133F9043206F480A2239E0732900F09D8008D835
S1133FA06F2920D07029DDD1236843F020032360DA
S1133FB003E0752917D07829D4D17823654884F88B
S1133FC0453055E0136804F14205191D1B68116062
S1133FD084F8423001238CE01B6810F0400F11601C
S1133FE018BF1BB2CFE713682568181D1060280698
S1133FF001D51B6802E06806FBD51B886F2914BF36
S11340000A2208225248002184F843106568002DD2
S1134010A560C0F29580216821F004012160002B85
S11340203DD1002D40F08E806546082A0BD12368CF
S1134030DB0708D5236962689A42DEBF302305F89E
S1134040013C05F1FF35ACEB05032361CDF800809D
S11340503B4603AA21463046FFF7F6FE01304DD118
S11340604FF0FF3005B0BDE8F083394884F84510BF
S1134070136821681D1D1B6815600A060BD5CA0745
S113408044BF41F0200121601BB9226822F02002C4
S113409022601022B7E74D0648BF9BB2EFE76546A2
S11340A0B3FBF2F102FB1133C35C05F8013D0B468F
S11340B00029F5D1B9E713682568181D61691060F6
S11340C028061B6801D5196002E06A06FBD5198031
S11340D0002365462361B9E71368191D11601D6843
S11340E062680021284600F093FA08B1401B606022
S11340F063682361002384F84330A7E723692A46D1
S113410039463046C0470130AAD023689B0713D4F0
S1134110E068039B9842B8BF1846A3E701234A46C8
S113412039463046C04701309AD00135E368039AD6
S11341309B1AAB42F2DCEBE7002504F11909F5E721
S1134140002BACD1037804F1420584F842306CE7CB
S1134150AD4B0000BE4B000038B50023054C0546AE
S11341600846236000F00CFB431C02D1236803B112
S11341702B6038BDEC24002010B50C46B1F90E10AC
S113418000F0A2FA0028ABBF636DA3891B1823F4C7
S11341908053ACBF6365A38110BD2DE9F0411F4678
S11341A08B890546DB050C46164605D502230022FD
S11341B0B1F90E1000F0B6F9A389324623F4805306
S11341C0A381B4F90E103B462846BDE8F04100F047
S11341D069B810B50C46B1F90E1000F0A3F9431CF0
S11341E0A38915BF606523F4805343F48053A381EE
S11341F018BFA38110BDB1F90E1000F0D3B80000B0
S1134200F8B50E461446054618B183690BB9FFF795
S1134210FBFB214B9C422AD16C68A369A360A38950
S11342201A072ED5236963B323692068F6B2C01A2E
S113423063693746834204DC2146284600F048F986
S113424028BBA3680130013BA36023685A1C226089
S11342501E706369834204D0A389DB0719D50A2E33
S113426017D12146284600F033F990B10FE00B4BEB
S11342709C4201D1AC68D0E7094B9C4208BFEC6872
S1134280CBE72146284600F01FF80028CCD04FF099
S1134290FF373846F8BD00BF5C4B00007C4B000084
S11342A03C4B000038B50546084611460022054C33
S11342B022601A46FFF70EFA431C02D1236803B1A9
S11342C02B6038BDEC240020324B70B51D680646C7
S11342D00C4625B1AB6913B92846FFF795FB2E4B65
S11342E09C420FD16C68B4F90C309AB215072CD4E7
S11342F0D00611D40922326043F04003A3814FF069
S1134300FF303EE0254B9C4201D1AC68EBE7244BE7
S11343109C4208BFEC68E6E7510712D5616B41B1D6
S113432004F14403994202D0304600F081F900239D
S11343306363A38923F02403A381002363602369B7
S11343402360A38943F00803A38123694BB9A3899C
S113435003F42073B3F5007F03D02146304600F008
S113436017F9A28912F001030CD00023A36063693A
S11343705B42A361236953B9B4F90C3013F0800094
S1134380BAD170BD920758BF6369A360F2E70020F9
S1134390F7E700BF200000205C4B00007C4B0000CE
S11343A03C4B000038B50023054C05460846236005
S11343B000F0BEF9431C02D1236803B12B6038BD61
S11343C0EC2400208A892DE9F041054610070C46AB
S11343D058D44B68002B05DC0B6C002B02DC00204E
S11343E0BDE8F081E66A002EF9D0002312F4805271
S11343F02F68216A2B6032D0606DA3895A0705D5D6
S11344006368C01A636B0BB1236CC01A00230246A5
S1134410E66A216A2846B047431CA38906D1296865
S11344201D2948D8294ACA40D60744D500226260CB
S11344302269D904226004D5421C01D12B6803B936
S11344406065616B2F600029C9D004F1440399426F
S113445002D0284600F0ECF800206063C0E7012396
S11344602846B047411CC8D12B68002BC5D01D2B52
S113447001D0162B01D12F60B1E7A38943F040038B
S1134480A381ADE70F69002FA9D0930718BF0023BC
S11344900E6808BF4B69A6EB07080F608B60B8F184
S11344A0000F9CDD43463A46216A2846A66AB04777
S11344B0002806DCA38943F04003A3814FF0FF30BA
S11344C08EE70744A8EB0008E9E700BF010040209D
S11344D038B50B6905460C46DBB118B183690BB9D5
S11344E0FFF792FA0C4B9C4209D16C68B4F90C307A
S11344F07BB121462846BDE83840FFF763BF074B30
S11345009C4201D1AC68F1E7054B9C4208BFEC68C2
S1134510ECE7002038BD00BF5C4B00007C4B000082
S11345203C4B000038B50546084611460022054CB0
S113453022601A4600F014F9431C02D1236803B127
S11345402B6038BDEC24002070B50E46B1F90E1076
S113455096B0002914461D4607DA00232B60B38960
S11345601A0610D44FF480630EE06A4600F0BEF8D9
S11345700028F2DB019A02F47042A2F500535A4279
S11345805A412A60EEE740230020236016B070BD34
S11345908B8973B59D0706460C4607D504F147037E
S11345A0236023610123636102B070BD01AB6A46DD
S11345B0FFF7CAFF009905463046FFF7AFFA48B93E
S11345C0B4F90C309A05EFD423F0030343F002034B
S11345D0A381E3E70D4BB362A389206043F080031A
S11345E0A381009B20616361019B5BB1B4F90E1050
S11345F0304600F08DF828B1A38923F0030343F07B
S11346000103A381A3891D43A581CDE7D13900000E
S113461010B5C9B202449042034601D1002303E01D
S11346201C7801308C42F6D1184610BD7047704793
S113463038B50546002943D051F8043C0C1F002B23
S1134640B8BFE418FFF7F2FF1E4A1368104633B9E7
S1134650636014602846BDE83840FFF7E8BFA34212
S11346600BD921686218934201BF1A685B6852181B
S1134670226063600460EDE713465A680AB1A242FF
S1134680FAD919685818A0420BD120680144581867
S113469082421960DED110685268014419605A6080
S11346A0D8E702D90C232B60D4E7206821188A426A
S11346B001BF116852680918216062605C60C9E733
S11346C038BD00BFDC24002038B505460846114635
S11346D00022054C22601A4600F04AF8431C02D11D
S11346E0236803B12B6038BDEC24002038B50023C7
S11346F0064C054608461146236000F021F8431C89
S113470002D1236803B12B6038BD00BFEC24002024
S113471038B50023054C05460846236000F018F818
S1134720431C02D1236803B12B6038BDEC24002064
S11347305822024B4FF0FF301A607047EC240020DF
S11347405822024B4FF0FF301A607047EC240020CF
S11347505822024B00201A60704700BFEC2400204E
S11347605822024B4FF0FF301A607047EC240020AF
S11347705822024B4FF0FF301A607047EC2400209F
S1134780044A05491368002B08BF0B4618441060FF
S113479018467047E4240020F0240020FEE700BF00
S11347A0F8B500BFF8BC08BC9E467047F8B500BF1A
S11347B0F8BC08BC9E467047633A5C73696C6963D5
S11347C06F6E6C6162735C73696D706C696369743C
S11347D07973747564696F5C76345C646576656C52
S11347E06F7065725C73646B735C6765636B6F5F3A
S11347F073646B5F73756974655C76322E375C70B5
S11348006C6174666F726D5C656D6C69625C696E17
S1134810635C656D5F6770696F2E6800040000005B
S11348200200000004000000030000002E2E2F46AA
S113483072656552544F532F65666D333267672F27
S1134840686561705F312E63000000002E2E2F46D4
S113485072656552544F532F65666D333267672F07
S1134860706F72745F6763632E6300002E2E2F4691
S113487072656552544F532F65666D333267672FE7
S113488071756575652E63002E2E2F46726565520F
S1134890544F532F65666D333267672F7461736BA2
S11348A0732E630049444C45000000002E2E2F65F2
S11348B06D6C69622F656D5F62757274632E63003F
S11348C0633A5C73696C69636F6E6C6162735C7389
S11348D0696D706C696369747973747564696F5C0C
S11348E076345C646576656C6F7065725C73646B5A
S11348F0735C6765636B6F5F73646B5F7375697417
S1134900655C76322E375C706C6174666F726D5CB8
S1134910656D6C69625C696E635C656D5F636F6D28
S11349206D6F6E2E68000000633A5C73696C696396
S11349306F6E6C6162735C73696D706C69636974CA
S11349407973747564696F5C76345C646576656CE0
S11349506F7065725C73646B735C6765636B6F5FC8
S113496073646B5F73756974655C76322E375C7043
S11349706C6174666F726D5C656D6C69625C696EA6
S1134980635C656D5F636D752E6800002E2E2F6568
S11349906D6C69622F656D5F636D752E6300000039
S11349A0633A5C73696C69636F6E6C6162735C73A8
S11349B0696D706C696369747973747564696F5C2B
S11349C076345C646576656C6F7065725C73646B79
S11349D0735C6765636B6F5F73646B5F7375697436
S11349E0655C76322E375C706C6174666F726D5CD8
S11349F0656D6C69625C696E635C656D5F67706947
S1134A006F2E68002E2E2F656D6C69622F656D5FA9
S1134A106770696F2E630000080911082E2E2F6538
S1134A206D6C69622F656D5F6932632E63000000EF
S1134A3001000000000000000200000081000000EE
S1134A4004000000910000000800000001000000C4
S1134A50100000000300000020000000DFEF000051
S1134A60400000009FEF00008000000019070000D4
S1134A700001000019060000000200001F040000ED
S1134A80000400001F0200000008000001000000F4
S1134A9000100000010000000020000001000000E0
S1134AA00040000001000000008000000100000040
S1134AB02E2E2F656D6C69622F656D5F737973742B
S1134AC0656D2E630000000066756E63696F6E612C
S1134AD00A0000006E6F2066756E63696F6E610A6E
S1134AE0000000004C6564426C696E6B310000008C
S1134AF04C6564426C696E6B32000000436F6D70EC
S1134B00726F766163696F3100000000010100007B
S1134B100000000060670100000000007472756509
S1134B20200A000066616C73650000004932433A54
S1134B3020253032580A0000240000200000000024
S1134B400000000000000000000000000000000061
S1134B500000000000000000000000000000000051
S1134B600000000000000000000000000000000041
S1134B700000000000000000000000000000000031
S1134B800000000000000000000000000000000021
S1134B90000000000000000000000000232D302B66
S1134BA02000686C4C00656667454647003031322A
S1134BB03334353637383941424344454600303181
S1134BC032333435363738396162636465660000E0
S1074BD000000000DD
S10B4BD448B5FF7F0100000059
S1134BDC006CDC0200800000809FD500AAAAAAAA5F
S1134BEC2800000000000000140000000100000078
S1134BFC24000020000000005C4B00007C4B0000F3
S1134C0C3C4B00000000000000000000000000000D
S1134C1C0000000000000000000000000000000084
S1134C2C0000000000000000000000000000000074
S1134C3C0000000000000000000000000000000064
S1134C4C0000000000000000000000000000000054
S10F4C5C0000000001010000DD00000069
S90304BD3B
